:100000000C942A000C9447000C9447000C94470071
:100010000C9447000C9447000C9447000C94BB22AE
:100020000C9447000C9447000C9447000C94470034
:100030000C9447000C9447000C9447000C94470024
:100040000C9447000C9447000C9447000C94470014
:100050000C94470011241FBECFE5D8E0DEBFCDBF12
:1000600011E0A0E6B0E0ECEAF6E402C005900D92E3
:10007000A63DB107D9F711E0A6EDB1E001C01D9290
:10008000AB3EB107E1F70E94251F0C9454230C945A
:100090000000EF92FF920F931F937B018C0120E0F1
:1000A00030E040E05FE40E94F50388238CF0C80153
:1000B000B70120E030E040E05FE40E94C1010E940F
:1000C00055049B01AC01205030404040504806C0D0
:1000D000C801B7010E9455049B01AC01B901CA01D6
:1000E0001F910F91FF90EF900895A0E0B0E0EBE733
:1000F000F0E00C941D23DC012B01FA019C9192305D
:1001000008F439C1EB018881823008F433C194309E
:1001100069F4843009F02FC111969C91119789815F
:10012000981709F428C1AEEBB1E025C1843009F479
:1001300021C18230A9F4923009F01DC19A01AD01AC
:1001400088E0EA010990AE01E90109929E0181501F
:10015000C1F7E201898111969C918923818308C1AD
:10016000923009F407C112962D903C901397EB0141
:100170008A819B811496AD90BD90CD90DC901797AD
:10018000EC80FD800E811F819101281B390BB90184
:1001900037FF04C066277727621B730B6032710537
:1001A0000CF061C0121613066CF537014801062EDB
:1001B00004C096948794779467940A94D2F721E0C8
:1001C00030E040E050E004C0220F331F441F551FB1
:1001D0006A95D2F721503040404050402E213F21B7
:1001E00040235123211531054105510521F021E01E
:1001F00030E040E050E079018A01E628F72808293C
:1002000019293CC0232BD1F1260E371E350146019A
:10021000062E04C096948794779467940A94D2F734
:1002200021E030E040E050E004C0220F331F441FC3
:10023000551F6A95D2F721503040404050402A2146
:100240003B214C215D21211531054105510521F04E
:1002500021E030E040E050E059016A01A628B728CB
:10026000C828D9280BC0821593052CF01C01AA249C
:10027000BB24650103C0EE24FF24870111969C91E5
:10028000D20111968C91981709F445C0992339F041
:10029000A80197012A193B094C095D0906C0A6016E
:1002A00095012E193F09400B510B57FD08C01182D3
:1002B0003382228224833583468357831DC081E0A5
:1002C00081833382228288279927DC01821B930B4A
:1002D000A40BB50B84839583A683B7830DC0220F2F
:1002E000331F441F551F24833583468357838281E0
:1002F000938101979383828324813581468157813D
:10030000DA01C9010197A109B1098F5F9F4FAF4F72
:10031000BF4328F30BC0918333822282EA0CFB1C7B
:100320000C1D1D1DE482F5820683178383E0808304
:10033000248135814681578157FF1AC0C901AA27F8
:1003400097FDA095BA2F81709070A070B0705695EF
:10035000479537952795822B932BA42BB52B848318
:100360009583A683B7838281938101969383828349
:10037000DF0101C0D201CD01CDB7DEB7E2E10C94BF
:100380003923A0E2B0E0E7ECF1E00C942923698383
:100390007A838B839C832D833E834F835887E9E048
:1003A000EE2EF12CEC0EFD1ECE010196B7010E943F
:1003B0007E058E010F5E1F4FCE010596B8010E948B
:1003C0007E058A8991E089278A8BC701B801AE0131
:1003D000475E5F4F0E9475000E94A904A096E6E068
:1003E0000C944523A0E2B0E0E8EFF1E00C9429235F
:1003F00069837A838B839C832D833E834F835887C5
:10040000F9E0EF2EF12CEC0EFD1ECE010196B701A6
:100410000E947E058E010F5E1F4FCE010596B8012A
:100420000E947E05C701B801AE01475E5F4F0E9482
:1004300075000E94A904A096E6E00C944523A0E272
:10044000B0E0E5E2F2E00C941D2369837A838B83AC
:100450009C832D833E834F835887CE010196BE0136
:10046000675F7F4F0E947E05CE010596BE016F5EDD
:100470007F4F0E947E059985923088F0898982306D
:10048000C8F0943019F4823051F404C0843029F457
:10049000923081F48EEB91E0C6C0923049F420E0B6
:1004A0009A858A89981321E02A87CE010996BBC0D4
:1004B000823049F420E09A858A89981321E02A8BBA
:1004C000CE014196B0C02D843E844F8458886D88FB
:1004D0007E888F88988CEE24FF248701AA24BB2471
:1004E000650140E050E060E070E0E0E0F0E0C10174
:1004F00081709070892BE9F0E60CF71C081D191D1E
:100500009A01AB012A0D3B1D4C1D5D1D80E090E062
:10051000A0E0B0E0E614F7040805190520F481E036
:1005200090E0A0E0B0E0BA01A901480F591F6A1F8E
:100530007B1FAA0CBB1CCC1CDD1C97FE08C081E0F5
:1005400090E0A0E0B0E0A82AB92ACA2ADB2A3196B6
:10055000E032F10549F0660C771C881C991C569412
:10056000479437942794C3CFFA85EA892B893C892D
:100570008B859C85280F391F2E5F3F4F17C0CA01FE
:1005800081709070892B61F016950795F794E79428
:1005900080E090E0A0E0B0E8E82AF92A0A2B1B2BC3
:1005A00076956795579547952F5F3F4F77FDE7CF36
:1005B0000CC0440F551F661F771F17FD4160EE0CDE
:1005C000FF1C001F111F21503040403090E05907A0
:1005D00090E0690790E4790760F32B8F3C8FDB0193
:1005E000CA018F779070A070B07080349105A1051A
:1005F000B10561F447FD0AC0E114F10401051105DC
:1006000029F0405C5F4F6F4F7F4F40781A8EFE1786
:1006100011F081E08A8F4D8F5E8F6F8F78A383E01A
:10062000898FCE0149960E94A904A096E2E10C941C
:100630003923A8E1B0E0EFE1F3E00C9425236983CE
:100640007A838B839C832D833E834F835887B9E0C5
:10065000EB2EF12CEC0EFD1ECE010196B7010E948F
:100660007E058E010F5E1F4FCE010596B8010E94D8
:100670007E052985223008F47EC03989323010F495
:10068000B8017CC08A859A8989278A87243011F02D
:10069000223031F4231709F06EC06EEB71E06EC0AA
:1006A000343039F41D861E861F86188A1C861B86E8
:1006B00004C0323021F484E08987B7015FC02B8504
:1006C0003C858B899C89281B390B3C872B87ED84C3
:1006D000FE840F851889AD88BE88CF88D88CEA142F
:1006E000FB040C051D0540F4EE0CFF1C001F111F40
:1006F000215030403C872B8720E030E040E050E044
:1007000080E090E0A0E0B0E460E070E0EA14FB0478
:100710000C051D0540F0282B392B4A2B5B2BEA18C2
:10072000FB080C091D09B695A79597958795EE0CC2
:10073000FF1C001F111F6F5F7F4F6F31710531F775
:10074000DA01C9018F779070A070B0708034910584
:10075000A105B10561F427FD0AC0E114F10401050A
:10076000110529F0205C3F4F4F4F5F4F20782D87B8
:100770003E874F87588BBE01675F7F4FCB010E943A
:10078000A9046896EAE00C944123A8E1B0E0EBEC00
:10079000F3E00C94292369837A838B839C832D83D4
:1007A0003E834F83588789E0E82EF12CEC0EFD1E26
:1007B000CE010196B7010E947E058E010F5E1F4F8C
:1007C000CE010596B8010E947E058985823040F0F1
:1007D0008989823028F0C701B8010E94F60501C05E
:1007E0008FEF6896E6E00C944523A8E1B0E0EBEFCC
:1007F000F3E00C94292369837A838B839C832D8374
:100800003E834F83588789E0E82EF12CEC0EFD1EC5
:10081000CE010196B7010E947E058E010F5E1F4F2B
:10082000CE010596B8010E947E058985823040F090
:100830008989823028F0C701B8010E94F60501C0FD
:100840008FEF6896E6E00C944523A8E1B0E0EBE278
:10085000F4E00C94292369837A838B839C832D8312
:100860003E834F83588789E0E82EF12CEC0EFD1E65
:10087000CE010196B7010E947E058E010F5E1F4FCB
:10088000CE010596B8010E947E058985823040F030
:100890008989823028F0C701B8010E94F60501C09D
:1008A00081E06896E6E00C944523ACE0B0E0EBE52F
:1008B000F4E00C942D2369837A838B839C83CE018F
:1008C0000196BE016B5F7F4F0E947E058D81823055
:1008D00061F1823050F1843021F48E81882351F10E
:1008E0002EC02F81388537FD20C06E812F31310514
:1008F0001CF06623F9F023C08EE190E0821B930B7D
:1009000029853A854B855C8504C056954795379572
:1009100027958A95D2F76623B1F05095409530958A
:1009200021953F4F4F4F5F4F0EC020E030E040E039
:1009300050E009C02FEF3FEF4FEF5FE704C020E02A
:1009400030E040E050E8B901CA012C96E2E00C9496
:100950004923DF92EF92FF920F931F93FC01E480F3
:10096000F58006811781D1808081823048F480E053
:1009700090E0A0E1B0E0E82AF92A0A2B1B2BA5C0E1
:10098000843009F49FC0823021F4EE24FF248701D3
:1009900005C0E114F1040105110519F4E0E0F0E0EF
:1009A00096C0628173819FEF623879070CF05BC05B
:1009B00022E83FEF261B370B2A3131052CF020E0CF
:1009C00030E040E050E02AC0B801A701022E04C088
:1009D00076956795579547950A94D2F781E090E010
:1009E000A0E0B0E004C0880F991FAA1FBB1F2A9582
:1009F000D2F70197A109B1098E219F21A023B1232C
:100A00000097A105B10521F081E090E0A0E0B0E001
:100A10009A01AB01282B392B4A2B5B2BDA01C90138
:100A20008F779070A070B07080349105A105B105EA
:100A300039F427FF09C0205C3F4F4F4F5F4F04C080
:100A4000215C3F4F4F4F5F4FE0E0F0E02030A0E0EF
:100A50003A07A0E04A07A0E45A0710F0E1E0F0E00E
:100A600079018A0127C06038710564F5FB01E158FE
:100A7000FF4FD801C7018F779070A070B07080349D
:100A80009105A105B10539F4E7FE0DC080E490E0C1
:100A9000A0E0B0E004C08FE390E0A0E0B0E0E80E9A
:100AA000F91E0A1F1B1F17FF05C016950795F7941F
:100AB000E794319687E016950795F794E7948A9521
:100AC000D1F705C0EE24FF248701EFEFF0E06E2F91
:100AD000679566276795902F9F77D794DD24D794E5
:100AE0008E2F8695492F462B582F5D29B701CA01B5
:100AF0001F910F91FF90EF90DF900895FC01DB01B3
:100B0000408151812281622F6F7770E0221F22275E
:100B1000221F9381892F880F822B282F30E0991F65
:100B20009927991F11969C93119721153105A9F5C5
:100B3000411551056105710511F482E037C082E865
:100B40009FEF13969C938E9312979A01AB0167E0E7
:100B5000220F331F441F551F6A95D1F783E08C93F2
:100B60000DC0220F331F441F551F12968D919C916B
:100B70001397019713969C938E931297203080E0E1
:100B8000380780E0480780E4580758F314962D93FF
:100B90003D934D935C93179708952F3F310579F45A
:100BA000411551056105710519F484E08C93089590
:100BB00064FF03C081E08C9312C01C9210C02F57B9
:100BC000304013963C932E93129783E08C9387E0EA
:100BD000440F551F661F771F8A95D1F770641496CE
:100BE0004D935D936D937C93179708951F93DC014C
:100BF000FB019C91923008F447C08081823008F458
:100C000043C0943051F411961C91843099F5818140
:100C1000682F70E0611B71093FC0843021F0923071
:100C200031F48230B9F18181882389F12DC0119688
:100C30001C9111978230F1F081811817D9F4129626
:100C40002D913C911397828193818217930794F0A1
:100C500028173907BCF014968D919D910D90BC9189
:100C6000A02D2481358146815781281739074A07ED
:100C70005B0718F4112341F00AC082179307A407F9
:100C8000B50740F4112319F061E070E005C06FEF83
:100C90007FEF02C060E070E0CB011F910895DF9309
:100CA000CF93CDB7DEB7A1E3B0E0E1E3F0E0808120
:100CB000807E8C93A2E3B0E0E2E3F0E080818F617C
:100CC0008C93A4E3B0E0E4E3F0E0808183788C933C
:100CD000A5E3B0E0E5E3F0E080818C678C93A7E3C7
:100CE000B0E0E7E3F0E0808182608C93A8E3B0E0BD
:100CF000E8E3F0E080818D7F8C93CF91DF910895C0
:100D0000DF93CF9300D000D00F92CDB7DEB78983A9
:100D10006A838981282F30E03D832C834C815D815B
:100D200043345105E1F08C819D818434910571F546
:100D3000E0E3F0E08081282F30E08A81882F90E086
:100D4000A90102C0559547958A95E2F7CA018170BD
:100D500090701B820097D9F451E05B8318C0E3E3E5
:100D6000F0E08081282F30E08A81882F90E0A9016F
:100D700002C0559547958A95E2F7CA018170907037
:100D80001B82009721F451E05B8301C01B828B81A1
:100D90000F900F900F900F900F90CF91DF910895CB
:100DA000DF93CF93CDB7DEB7E0E2F0E080E280835F
:100DB000E1E2F0E01082CF91DF910895DF93CF93CD
:100DC0000F92CDB7DEB78983E6E5F0E084EA808351
:100DD000E6E5F0E080818823DCF7E3E2F0E089815A
:100DE0008083E6E5F0E084E88083E6E5F0E080815A
:100DF0008823DCF70F90CF91DF910895DF93CF9395
:100E00000F92CDB7DEB78983E3E2F0E0898180837A
:100E1000E6E5F0E084E88083E6E5F0E08081882381
:100E2000DCF70F90CF91DF910895DF93CF93CDB78B
:100E3000DEB7E6E5F0E084EC8083E6E5F0E0808173
:100E40008823DCF7E3E2F0E08081CF91DF91089521
:100E5000DF93CF93CDB7DEB7E6E5F0E084E880839B
:100E6000E6E5F0E080818823DCF7E3E2F0E08081D2
:100E7000CF91DF910895DF93CF93CDB7DEB7E6E54D
:100E8000F0E084E98083CF91DF910895DF93CF93E1
:100E9000CDB7DEB7EAE3F0E080EF8083EBE3F0E08C
:100EA0008FEF8083CF91DF910895DF93CF93CDB7FC
:100EB000DEB761970FB6F894DEBF0FBECDBF188ABC
:100EC000C8C0EBE3F0E08889882F90E09C012C5F9C
:100ED0003F4F81E090E002C0880F991F2A95E2F70A
:100EE0008095808380E090E0A0EAB0E48B879C87C7
:100EF000AD87BE876B857C858D859E8520E030E043
:100F00004AEF54E40E941F02DC01CB018F839887D3
:100F1000A987BA876F81788589859A8520E030E036
:100F200040E85FE30E94250488232CF481E090E0F0
:100F30009E838D833FC06F81788589859A8520E067
:100F40003FEF4FE757E40E94C50318164CF56B8539
:100F50007C858D859E8520E030E040E251E40E9452
:100F60001F02DC01CB01BC01CD010E944900DC0164
:100F7000CB019E838D830FC088EC90E09C838B8394
:100F80008B819C810197F1F79C838B838D819E815E
:100F900001979E838D838D819E81009769F714C090
:100FA0006F81788589859A850E944900DC01CB0193
:100FB0009E838D838D819E819A83898389819A8185
:100FC0000197F1F79A8389831F863CC0E9E3F0E03B
:100FD0008081282F30E08F85882F90E0A90102C002
:100FE000559547958A95E2F7CA01817090700097F0
:100FF00031F5E9E3F0E08081282F30E08F85882FFC
:1010000090E0A90102C0559547958A95E2F7CA017B
:1010100081709070009769F38889482F50E08F8520
:10102000282F30E0CA01880F991F880F991F820F5F
:10103000931FFC01EA53FE4F5081598B0FC08F85DF
:101040008F5F8F878F85843008F4C0CF88898F5F4A
:10105000888B8889843008F434CF198A898961960D
:101060000FB6F894DEBF0FBECDBFCF91DF910895CC
:101070000F931F93DF93CF93CDB7DEB7C755D04003
:101080000FB6F894DEBF0FBECDBFFE01E95AFF4F89
:101090008083A8E3B0E0FE01E95AFF4F8081807FA2
:1010A0008C93A2E3B0E0E2E3F0E080818F7B8C934D
:1010B000A2E3B0E0E2E3F0E0808180688C93FE017F
:1010C000ED5AFF4F80E090E0A0E8BFE3808391837A
:1010D000A283B3838E01015B1F4FFE01ED5AFF4FC8
:1010E00060817181828193812BEA3AEA4AE250E47D
:1010F0000E941F02DC01CB01F80180839183A2834F
:10110000B383FE01E15BFF4F608171818281938136
:1011100020E030E040E85FE30E942504882334F4B7
:10112000FE01E25BFF4F81E08083E0C0FE01E15BF6
:10113000FF4F608171818281938120E030E04FE731
:1011400053E40E94C50318160CF0C0C0FE01ED5A0E
:10115000FF4F608171818281938120E030E04AE716
:1011600054E40E941903DC01CB01FE01E65BFF4F52
:1011700080839183A283B3838E010A5B1F4FFE019C
:10118000E65BFF4F608171818281938120E030E0D6
:101190004AEF54E40E941F02DC01CB01F801808376
:1011A0009183A283B383FE01EA5BFF4F608171816B
:1011B0008281938120E030E040E85FE30E942504D3
:1011C000882344F4FE01EC5BFF4F81E090E09183C3
:1011D000808364C0FE01EA5BFF4F60817181828180
:1011E000938120E03FEF4FE757E40E94C5031816B4
:1011F0000CF043C0FE01E65BFF4F6081718182818C
:10120000938120E030E040E251E40E941F02DC01C3
:10121000CB018E010C5B1F4FBC01CD010E94490028
:10122000DC01CB01F801918380831FC0FE01EE5BDE
:10123000FF4F88EC90E091838083FE01EE5BFF4FCF
:10124000808191810197F1F7FE01EE5BFF4F918361
:101250008083DE01AC5BBF4FFE01EC5BFF4F808102
:101260009181019711969C938E93FE01EC5BFF4F49
:10127000808191810097D1F642C08E010C5B1F4F97
:10128000FE01EA5BFF4F60817181828193810E9440
:101290004900DC01CB01F80191838083DE01A05C71
:1012A000BF4FFE01EC5BFF4F8081918111969C93B3
:1012B0008E93FE01E05CFF4F808191810197F1F7F1
:1012C000FE01E05CFF4F9183808319C08E01025BB9
:1012D0001F4FFE01E15BFF4F60817181828193812D
:1012E0000E944900DC01CB01F8018083FE01E25B32
:1012F000FF4F80818FAF8FAD8A95F1F78FAFA2E35B
:10130000B0E0E2E3F0E080818F778C9380E090E0C2
:10131000A8ECB2E48BAF9CAFADAFBEAF6BAD7CAD14
:101320008DAD9EAD2BEA3AEA4AE250E40E941F02DC
:10133000DC01CB018FAB98AFA9AFBAAF6FA978AD85
:1013400089AD9AAD20E030E040E85FE30E942504DB
:1013500088231CF481E08EAB91C06FA978AD89AD74
:101360009AAD20E030E04FE753E40E94C503181621
:101370000CF07BC06BAD7CAD8DAD9EAD20E030E060
:101380004AE754E40E941903DC01CB018AAB9BAB12
:10139000ACABBDAB6AA97BA98CA99DA920E030E0CC
:1013A0004AEF54E40E941F02DC01CB018EA79FA7E5
:1013B000A8ABB9AB6EA57FA588A999A920E030E0BC
:1013C00040E85FE30E94250488232CF481E090E04C
:1013D0009DA78CA73FC06EA57FA588A999A920E0ED
:1013E0003FEF4FE757E40E94C50318164CF56AA972
:1013F0007BA98CA99DA920E030E040E251E40E9445
:101400001F02DC01CB01BC01CD010E944900DC01BF
:10141000CB019DA78CA70FC088EC90E09BA78AA763
:101420008AA59BA50197F1F79BA78AA78CA59DA5E7
:1014300001979DA78CA78CA59DA5009769F724C04F
:101440006EA57FA588A999A90E944900DC01CB015E
:101450009DA78CA78CA59DA599A788A788A599A5C8
:101460000197F1F799A788A70FC06FA978AD89AD4B
:101470009AAD0E944900DC01CB018EAB8EA98FA3EF
:101480008FA18A95F1F78FA3A8E3B0E0FE01E95A96
:10149000FF4F80818295807F8C93A2E3B0E0E2E3EE
:1014A000F0E0808180688C9380E090E0A0E8BFE36A
:1014B0008BA39CA3ADA3BEA36BA17CA18DA19EA178
:1014C0002BEA3AEA4AE250E40E941F02DC01CB0117
:1014D0008F8F98A3A9A3BAA36F8D78A189A19AA190
:1014E00020E030E040E85FE30E94250488231CF4FC
:1014F00081E08E8F91C06F8D78A189A19AA120E0A3
:1015000030E04FE753E40E94C50318160CF07BC08F
:101510006BA17CA18DA19EA120E030E04AE754E4BC
:101520000E941903DC01CB018A8F9B8FAC8FBD8F8A
:101530006A8D7B8D8C8D9D8D20E030E04AEF54E4E8
:101540000E941F02DC01CB018E8B9F8BA88FB98F6D
:101550006E897F89888D998D20E030E040E85FE3D7
:101560000E94250488232CF481E090E09D8B8C8BD5
:101570003FC06E897F89888D998D20E03FEF4FE7CE
:1015800057E40E94C50318164CF56A8D7B8D8C8D2F
:101590009D8D20E030E040E251E40E941F02DC011A
:1015A000CB01BC01CD010E944900DC01CB019D8B28
:1015B0008C8B0FC088EC90E09B8B8A8B8A899B89EF
:1015C0000197F1F79B8B8A8B8C899D8901979D8B65
:1015D0008C8B8C899D89009769F724C06E897F89DF
:1015E000888D998D0E944900DC01CB019D8B8C8BED
:1015F0008C899D89998B888B888999890197F1F7C6
:10160000998B888B0FC06F8D78A189A19AA10E94B8
:101610004900DC01CB018E8F8E8D8F878F858A9557
:10162000F1F78F87A2E3B0E0E2E3F0E080818F770B
:101630008C9380E090E0A0E0B0E48B879C87AD873E
:10164000BE876B857C858D859E8520E030E04AEFE6
:1016500054E40E941F02DC01CB018F839887A98785
:10166000BA876F81788589859A8520E030E040E8E7
:101670005FE30E94250488232CF481E090E09E83A0
:101680008D833FC06F81788589859A8520E03FEF03
:101690004FE757E40E94C50318164CF56B857C850F
:1016A0008D859E8520E030E040E251E40E941F02DB
:1016B000DC01CB01BC01CD010E944900DC01CB0162
:1016C0009E838D830FC088EC90E09C838B838B81FD
:1016D0009C810197F1F79C838B838D819E8101977B
:1016E0009E838D838D819E81009769F714C06F81E1
:1016F000788589859A850E944900DC01CB019E830B
:101700008D838D819E819A83898389819A810197B6
:10171000F1F79A838983C95ADF4F0FB6F894DEBF79
:101720000FBECDBFCF91DF911F910F910895DF9331
:10173000CF93CDB7DEB72E970FB6F894DEBF0FBEAE
:10174000CDBFA7E3B0E0E7E3F0E08081806F8C934A
:10175000A1E3B0E0E1E3F0E08081806C8C9380E075
:1017600090E0A8E4B2E48B879C87AD87BE876B8549
:101770007C858D859E8520E030E04AEF54E40E9410
:101780001F02DC01CB018F839887A987BA876F81FD
:10179000788589859A8520E030E040E85FE30E9403
:1017A000250488232CF481E090E09E838D833FC044
:1017B0006F81788589859A8520E03FEF4FE757E470
:1017C0000E94C50318164CF56B857C858D859E851A
:1017D00020E030E040E251E40E941F02DC01CB0136
:1017E000BC01CD010E944900DC01CB019E838D83A9
:1017F0000FC088EC90E09C838B838B819C81019748
:10180000F1F79C838B838D819E8101979E838D83CD
:101810008D819E81009769F714C06F8178858985D5
:101820009A850E944900DC01CB019E838D838D81C6
:101830009E819A83898389819A810197F1F79A839E
:10184000898382E00E94380888E20E9438088CE090
:101850000E94380886E00E94380881E00E9438081B
:101860002E960FB6F894DEBF0FBECDBFCF91DF919D
:1018700008950F931F93DF93CF93CDB7DEB7C7556E
:10188000D0400FB6F894DEBF0FBECDBFFE01E95ABF
:10189000FF4F8083A8E3B0E0FE01E95AFF4F80814B
:1018A000807F8C93A2E3B0E0E2E3F0E0808180648B
:1018B0008C93A2E3B0E0E2E3F0E0808180688C9357
:1018C000FE01ED5AFF4F80E090E0A0E8BFE3808387
:1018D0009183A283B3838E01015B1F4FFE01ED5AFA
:1018E000FF4F60817181828193812BEA3AEA4AE25B
:1018F00050E40E941F02DC01CB01F8018083918338
:10190000A283B383FE01E15BFF4F6081718182811D
:10191000938120E030E040E85FE30E9425048823C3
:1019200034F4FE01E25BFF4F81E08083E0C0FE0102
:10193000E15BFF4F608171818281938120E030E023
:101940004FE753E40E94C50318160CF0C0C0FE0117
:10195000ED5AFF4F608171818281938120E030E0F8
:101960004AE754E40E941903DC01CB01FE01E65B67
:10197000FF4F80839183A283B3838E010A5B1F4F45
:10198000FE01E65BFF4F608171818281938120E0DF
:1019900030E04AEF54E40E941F02DC01CB01F80161
:1019A00080839183A283B383FE01EA5BFF4F608152
:1019B00071818281938120E030E040E85FE30E9402
:1019C0002504882344F4FE01EC5BFF4F81E090E0A6
:1019D0009183808364C0FE01EA5BFF4F6081718167
:1019E0008281938120E03FEF4FE757E40E94C503D7
:1019F00018160CF043C0FE01E65BFF4F6081718159
:101A00008281938120E030E040E251E40E941F0295
:101A1000DC01CB018E010C5B1F4FBC01CD010E948C
:101A20004900DC01CB01F801918380831FC0FE01D6
:101A3000EE5BFF4F88EC90E091838083FE01EE5BCC
:101A4000FF4F808191810197F1F7FE01EE5BFF4F1F
:101A500091838083DE01AC5BBF4FFE01EC5BFF4FE7
:101A600080819181019711969C938E93FE01EC5B8E
:101A7000FF4F808191810097D1F642C08E010C5BAF
:101A80001F4FFE01EA5BFF4F60817181828193816C
:101A90000E944900DC01CB01F80191838083DE01C3
:101AA000A05CBF4FFE01EC5BFF4F808191811196DE
:101AB0009C938E93FE01E05CFF4F808191810197A2
:101AC000F1F7FE01E05CFF4F9183808319C08E0126
:101AD000025B1F4FFE01E15BFF4F608171818281DC
:101AE00093810E944900DC01CB01F8018083FE0153
:101AF000E25BFF4F80818FAF8FAD8A95F1F78FAF9B
:101B0000A2E3B0E0E2E3F0E080818F778C9380E0A5
:101B100090E0A8ECB2E48BAF9CAFADAFBEAF6BADC5
:101B20007CAD8DAD9EAD2BEA3AEA4AE250E40E94CC
:101B30001F02DC01CB018FAB98AFA9AFBAAF6FA981
:101B400078AD89AD9AAD20E030E040E85FE30E94D7
:101B5000250488231CF481E08EAB91C06FA978AD79
:101B600089AD9AAD20E030E04FE753E40E94C50311
:101B700018160CF07BC06BAD7CAD8DAD9EAD20E03A
:101B800030E04AE754E40E941903DC01CB018AAB40
:101B90009BABACABBDAB6AA97BA98CA99DA920E08E
:101BA00030E04AEF54E40E941F02DC01CB018EA713
:101BB0009FA7A8ABB9AB6EA57FA588A999A920E07E
:101BC00030E040E85FE30E94250488232CF481E0A4
:101BD00090E09DA78CA73FC06EA57FA588A999A975
:101BE00020E03FEF4FE757E40E94C50318164CF57D
:101BF0006AA97BA98CA99DA920E030E040E251E4CC
:101C00000E941F02DC01CB01BC01CD010E944900F2
:101C1000DC01CB019DA78CA70FC088EC90E09BA7AF
:101C20008AA78AA59BA50197F1F79BA78AA78CA5F0
:101C30009DA501979DA78CA78CA59DA5009769F7E9
:101C400024C06EA57FA588A999A90E944900DC013E
:101C5000CB019DA78CA78CA59DA599A788A788A532
:101C600099A50197F1F799A788A70FC06FA978AD3B
:101C700089AD9AAD0E944900DC01CB018EAB8EA9E3
:101C80008FA38FA18A95F1F78FA3A8E3B0E0FE019F
:101C9000E95AFF4F80818295807F8C93A2E3B0E068
:101CA000E2E3F0E0808180688C9380E090E0A0E83F
:101CB000BFE38BA39CA3ADA3BEA36BA17CA18DA10D
:101CC0009EA12BEA3AEA4AE250E40E941F02DC019C
:101CD000CB018F8F98A3A9A3BAA36F8D78A189A1F7
:101CE0009AA120E030E040E85FE30E9425048823C9
:101CF0001CF481E08E8F91C06F8D78A189A19AA18B
:101D000020E030E04FE753E40E94C50318160CF0C2
:101D10007BC06BA17CA18DA19EA120E030E04AE7B1
:101D200054E40E941903DC01CB018A8F9B8FAC8F96
:101D3000BD8F6A8D7B8D8C8D9D8D20E030E04AEFCC
:101D400054E40E941F02DC01CB018E8B9F8BA88F75
:101D5000B98F6E897F89888D998D20E030E040E8C9
:101D60005FE30E94250488232CF481E090E09D8BA2
:101D70008C8B3FC06E897F89888D998D20E03FEFE5
:101D80004FE757E40E94C50318164CF56A8D7B8D0A
:101D90008C8D9D8D20E030E040E251E40E941F02D6
:101DA000DC01CB01BC01CD010E944900DC01CB016B
:101DB0009D8B8C8B0FC088EC90E09B8B8A8B8A89E3
:101DC0009B890197F1F79B8B8A8B8C899D89019761
:101DD0009D8B8C8B8C899D89009769F724C06E89B7
:101DE0007F89888D998D0E944900DC01CB019D8BF4
:101DF0008C8B8C899D89998B888B8889998901978F
:101E0000F1F7998B888B0FC06F8D78A189A19AA16A
:101E10000E944900DC01CB018E8F8E8D8F878F85CC
:101E20008A95F1F78F87A2E3B0E0E2E3F0E08081EA
:101E30008F778C9380E090E0A0E0B0E48B879C8764
:101E4000AD87BE876B857C858D859E8520E030E0E3
:101E50004AEF54E40E941F02DC01CB018F83988774
:101E6000A987BA876F81788589859A8520E030E0D7
:101E700040E85FE30E94250488232CF481E090E091
:101E80009E838D833FC06F81788589859A8520E008
:101E90003FEF4FE757E40E94C50318164CF56B85DA
:101EA0007C858D859E8520E030E040E251E40E94F3
:101EB0001F02DC01CB01BC01CD010E944900DC0105
:101EC000CB019E838D830FC088EC90E09C838B8335
:101ED0008B819C810197F1F79C838B838D819E81FF
:101EE00001979E838D838D819E81009769F714C031
:101EF0006F81788589859A850E944900DC01CB0134
:101F00009E838D838D819E819A83898389819A8125
:101F10000197F1F79A838983C95ADF4F0FB6F89476
:101F2000DEBF0FBECDBFCF91DF911F910F910895FE
:101F3000DF93CF9300D0CDB7DEB79A8389830BC0F0
:101F4000E981FA81208189819A8101969A83898326
:101F5000822F0E94390CE981FA818081882381F7E0
:101F60000F900F90CF91DF910895DF93CF93CDB76E
:101F7000DEB72E970FB6F894DEBF0FBECDBF81E05F
:101F80000E94380880E090E0A0E0B0E48B879C8756
:101F9000AD87BE876B857C858D859E8520E030E092
:101FA0004AEF54E40E941F02DC01CB018F83988723
:101FB000A987BA876F81788589859A8520E030E086
:101FC00040E85FE30E94250488232CF481E090E040
:101FD0009E838D833FC06F81788589859A8520E0B7
:101FE0003FEF4FE757E40E94C50318164CF56B8589
:101FF0007C858D859E8520E030E040E251E40E94A2
:102000001F02DC01CB01BC01CD010E944900DC01B3
:10201000CB019E838D830FC088EC90E09C838B83E3
:102020008B819C810197F1F79C838B838D819E81AD
:1020300001979E838D838D819E81009769F714C0DF
:102040006F81788589859A850E944900DC01CB01E2
:102050009E838D838D819E819A83898389819A81D4
:102060000197F1F79A8389832E960FB6F894DEBF15
:102070000FBECDBFCF91DF910895DF93CF93CDB742
:10208000DEB72F970FB6F894DEBF0FBECDBF84E446
:1020900063E00E948006882309F47BC080E090E022
:1020A000A8E4B2E48B879C87AD87BE876B857C856F
:1020B0008D859E8520E030E04AEF54E40E941F02A7
:1020C000DC01CB018F839887A987BA876F817885D8
:1020D00089859A8520E030E040E85FE30E9425048E
:1020E00088232CF481E090E09E838D833FC06F8134
:1020F000788589859A8520E03FEF4FE757E40E9475
:10210000C50318164CF56B857C858D859E8520E072
:1021100030E040E251E40E941F02DC01CB01BC012F
:10212000CD010E944900DC01CB019E838D830FC04D
:1021300088EC90E09C838B838B819C810197F1F7E5
:102140009C838B838D819E8101979E838D838D815E
:102150009E81009769F714C06F81788589859A857B
:102160000E944900DC01CB019E838D838D819E817D
:102170009A83898389819A810197F1F79A83898368
:1021800084E463E00E9480068823D1F781E08F8792
:1021900001C01F868F852F960FB6F894DEBF0FBE45
:1021A000CDBFCF91DF910895DF93CF93CDB7DEB749
:1021B000A2970FB6F894DEBF0FBECDBF88A369A368
:1021C0001F8E1D8E9BC00E9455078E8F8E8D803373
:1021D00008F494C08E8D8A3308F090C08F8D882FBC
:1021E00090E09C01220F331FC901880F991F880FAF
:1021F000991F820F931F982F8E8D890F80538F8F79
:102200008E8D0E94390C8D8D8F5F8D8F0E945507AA
:10221000982F8E8D9817D1F380E090E0A8E4B3E476
:10222000898F9A8FAB8FBC8F698D7A8D8B8D9C8DAA
:1022300020E030E04AEF54E40E941F02DC01CB01B1
:102240008D8B9E8BAF8BB88F6D897E898F89988D92
:1022500020E030E040E85FE30E94250488232CF46E
:1022600081E090E09C8B8B8B3FC06D897E898F894C
:10227000988D20E03FEF4FE757E40E94C503181602
:102280004CF5698D7A8D8B8D9C8D20E030E040E29D
:1022900051E40E941F02DC01CB01BC01CD010E9470
:1022A0004900DC01CB019C8B8B8B0FC088EC90E04C
:1022B0009A8B898B89899A890197F1F79A8B898BF7
:1022C0008B899C8901979C8B8B8B8B899C89009730
:1022D00069F714C06D897E898F89988D0E944900A5
:1022E000DC01CB019C8B8B8B8B899C89988B8F8796
:1022F0008F8598890197F1F7988B8F878D8D823024
:1023000008F461CF9F8D88A1981728F09F8D89A12F
:10231000891708F07EC00E94B50F80E690E00E9409
:10232000980F80E090E0AAE7B4E48B879C87AD87A4
:10233000BE876B857C858D859E8520E030E04AEFE9
:1023400054E40E941F02DC01CB018F839887A98788
:10235000BA876F81788589859A8520E030E040E8EA
:102360005FE30E94250488232CF481E090E09E83A3
:102370008D833FC06F81788589859A8520E03FEF06
:102380004FE757E40E94C50318164CF56B857C8512
:102390008D859E8520E030E040E251E40E941F02DE
:1023A000DC01CB01BC01CD010E944900DC01CB0165
:1023B0009E838D830FC088EC90E09C838B838B8100
:1023C0009C810197F1F79C838B838D819E8101977E
:1023D0009E838D838D819E81009769F714C06F81E4
:1023E000788589859A850E944900DC01CB019E830E
:1023F0008D838D819E819A83898389819A810197BA
:10240000F1F79A83898388A169A10E94D4108AA3D5
:1024100002C08F8D8AA38AA1A2960FB6F894DEBF60
:102420000FBECDBFCF91DF910895DF93CF9300D042
:1024300000D000D0CDB7DEB79E012E5F3F4FAE017A
:102440004D5F5F4FCE010196B9010E94EF20CE0192
:1024500004969E012B5F3F4FAE014A5F5F4FB9016B
:102460000E9427210E94B50F8CE690E00E94980FF1
:1024700089819AE0692F0E941123805D0E94390CA6
:1024800089819AE0692F0E941123892F805D0E9423
:10249000390C8AE30E94390C8A819AE0692F0E94E4
:1024A0001123805D0E94390C8A819AE0692F0E9475
:1024B0001123892F805D0E94390C8AE30E94390C18
:1024C0008B819AE0692F0E941123805D0E94390C54
:1024D0008B819AE0692F0E941123892F805D0E94D1
:1024E000390C80EC0E94380883E790E00E94980F36
:1024F0008C819AE0692F0E941123805D0E94390C23
:102500008C819AE0692F0E941123892F805D0E949F
:10251000390C8FE20E94390C8D819AE0692F0E945C
:102520001123805D0E94390C8D819AE0692F0E94F1
:102530001123892F805D0E94390C8FE20E94390C93
:102540008E819AE0692F0E941123805D0E94390CD0
:102550008E819AE0692F0E941123892F805D0E944D
:10256000390C26960FB6F894DEBF0FBECDBFCF91C3
:10257000DF910895DF93CF93CDB7DEB72E970FB6D7
:10258000F894DEBF0FBECDBF0E94B50F0E9415129A
:1025900080E090E0AAE7B4E48B879C87AD87BE8794
:1025A0006B857C858D859E8520E030E04AEF54E484
:1025B0000E941F02DC01CB018F839887A987BA870D
:1025C0006F81788589859A8520E030E040E85FE377
:1025D0000E94250488232CF481E090E09E838D8363
:1025E0003FC06F81788589859A8520E03FEF4FE76E
:1025F00057E40E94C50318164CF56B857C858D85C4
:102600009E8520E030E040E251E40E941F02DC01A0
:10261000CB01BC01CD010E944900DC01CB019E83AE
:102620008D830FC088EC90E09C838B838B819C8191
:102630000197F1F79C838B838D819E8101979E8307
:102640008D838D819E81009769F714C06F81788595
:1026500089859A850E944900DC01CB019E838D8388
:102660008D819E819A83898389819A810197F1F76F
:102670009A8389832E960FB6F894DEBF0FBECDBF26
:10268000CF91DF910895DF93CF93CDB7DEB7AF97AA
:102690000FB6F894DEBF0FBECDBF0E94B50F8AE71C
:1026A00090E00E94980F80E090E0AAE7B4E48FA346
:1026B00098A7A9A7BAA76FA178A589A59AA520E090
:1026C00030E04AEF54E40E941F02DC01CB018BA3EF
:1026D0009CA3ADA3BEA36BA17CA18DA19EA120E074
:1026E00030E040E85FE30E94250488232CF481E079
:1026F00090E09AA389A33FC06BA17CA18DA19EA16C
:1027000020E03FEF4FE757E40E94C50318164CF551
:102710006FA178A589A59AA520E030E040E251E4B8
:102720000E941F02DC01CB01BC01CD010E944900C7
:10273000DC01CB019AA389A30FC088EC90E098A399
:102740008F8F8F8D98A10197F1F798A38F8F89A113
:102750009AA101979AA389A389A19AA1009769F7E1
:1027600014C06BA17CA18DA19EA10E944900DC0137
:10277000CB019AA389A389A19AA19E8F8D8F8D8D5C
:102780009E8D0197F1F79E8F8D8F1FA61EA61DA609
:102790001BA60E94B50F86E890E00E94980F28C003
:1027A0000E943D10882319F00E94BA12FAC10E94BB
:1027B00055078CA78CA58033D8F08CA58A33C0F43C
:1027C0008FA5882F90E09C01220F331FC901880F2D
:1027D000991F880F991F820F931F982F8CA5890F1F
:1027E00080538FA78CA50E94390C8BA58F5F8BA778
:1027F0008BA58230A8F20E94B50F8DE890E00E9470
:10280000980F1BA628C00E943D10882319F00E9433
:10281000BA12C7C10E9455078CA78CA58033D8F087
:102820008CA58A33C0F48EA5882F90E09C01220FDE
:10283000331FC901880F991F880F991F820F931F9B
:10284000982F8CA5890F80538EA78CA50E94390CD8
:102850008BA58F5F8BA78BA58230A8F20E94B50F46
:1028600086E990E00E94980F1BA628C00E943D10A8
:10287000882319F00E94BA1294C10E9455078CA7B0
:102880008CA58033D8F08CA58A33C0F48DA5882F11
:1028900090E09C01220F331FC901880F991F880FF8
:1028A000991F820F931F982F8CA5890F80538DA796
:1028B0008CA50E94390C8BA58F5F8BA78BA58230CE
:1028C000A8F28FA56EA54DA50E947C210E9494219F
:1028D0000E94B50F8FE990E00E94980F0E943D1072
:1028E000882319F00E94BA125CC180EC0E9438085B
:1028F0008FA59AE0692F0E941123805D0E94390CF8
:102900008FA59AE0692F0E941123892F805D0E9474
:10291000390C8AE30E94390C8EA59AE0692F0E9437
:102920001123805D0E94390C8EA59AE0692F0E94C8
:102930001123892F805D0E94390C8AE30E94390C93
:102940008DA59AE0692F0E941123805D0E94390CA9
:102950008DA59AE0692F0E941123892F805D0E9426
:10296000390C8FA5882339F48EA5882321F48DA5F1
:10297000882309F48EC080E090E0AAE7B4E4898F50
:102980009A8FAB8FBC8F698D7A8D8B8D9C8D20E05B
:1029900030E04AEF54E40E941F02DC01CB018D8B32
:1029A0009E8BAF8BB88F6D897E898F89988D20E043
:1029B00030E040E85FE30E94250488232CF481E0A6
:1029C00090E09C8B8B8B3FC06D897E898F89988D21
:1029D00020E03FEF4FE757E40E94C50318164CF57F
:1029E000698D7A8D8B8D9C8D20E030E040E251E442
:1029F0000E941F02DC01CB01BC01CD010E944900F5
:102A0000DC01CB019C8B8B8B0FC088EC90E09A8B08
:102A1000898B89899A890197F1F79A8B898B8B89A0
:102A20009C8901979C8B8B8B8B899C89009769F77C
:102A300014C06D897E898F89988D0E944900DC01C0
:102A4000CB019C8B8B8B8B899C89988B8F878F85F7
:102A500098890197F1F7988B8F878DA5882321F0AE
:102A60008DA581508DA73ACF8EA5882331F08EA5F4
:102A700081508EA78BE38DA731CF8FA5882309F4D2
:102A80002DCF8FA581508FA78BE38EA78BE38DA7CA
:102A900025CF0E94B50F89EA90E00E94980FA8E325
:102AA000B0E0E8E3F0E0808182608C9380E090E425
:102AB000ACE9B5E48B879C87AD87BE876B857C8549
:102AC0008D859E8520E030E04AEF54E40E941F028D
:102AD000DC01CB018F839887A987BA876F817885BE
:102AE00089859A8520E030E040E85FE30E94250474
:102AF00088232CF481E090E09E838D833FC06F811A
:102B0000788589859A8520E03FEF4FE757E40E945A
:102B1000C50318164CF56B857C858D859E8520E058
:102B200030E040E251E40E941F02DC01CB01BC0115
:102B3000CD010E944900DC01CB019E838D830FC033
:102B400088EC90E09C838B838B819C810197F1F7CB
:102B50009C838B838D819E8101979E838D838D8144
:102B60009E81009769F714C06F81788589859A8561
:102B70000E944900DC01CB019E838D838D819E8163
:102B80009A83898389819A810197F1F79A8389834E
:102B9000A8E3B0E0E8E3F0E080818D7F8C930E94B1
:102BA000BA12AF960FB6F894DEBF0FBECDBFCF916D
:102BB000DF910895DF93CF93CDB7DEB7A0970FB61F
:102BC000F894DEBF0FBECDBF18A21F8E1E8E1D8EC5
:102BD0000E94B50F84EB90E00E94980F80E090E097
:102BE000AAE7B4E4898F9A8FAB8FBC8F698D7A8DF9
:102BF0008B8D9C8D20E030E04AEF54E40E941F0250
:102C0000DC01CB018D8B9E8BAF8BB88F6D897E895C
:102C10008F89988D20E030E040E85FE30E94250432
:102C200088232CF481E090E09C8B8B8B3FC06D89D6
:102C30007E898F89988D20E03FEF4FE757E40E940F
:102C4000C50318164CF5698D7A8D8B8D9C8D20E00F
:102C500030E040E251E40E941F02DC01CB01BC01E4
:102C6000CD010E944900DC01CB019C8B8B8B0FC0F6
:102C700088EC90E09A8B898B89899A890197F1F782
:102C80009A8B898B8B899C8901979C8B8B8B8B89E9
:102C90009C89009769F714C06D897E898F89988D0A
:102CA0000E944900DC01CB019C8B8B8B8B899C891A
:102CB000988B8F878F8598890197F1F7988B8F87ED
:102CC0000E943D10882359F00E94BA12A0960FB6B8
:102CD000F894DEBF0FBECDBFCF91DF91089584E49D
:102CE00060E00E948006882311F081E08D8F84E4EB
:102CF00061E00E948006882309F01D8E84E462E072
:102D00000E948006882329F01E8E8E8D8F8F8F8DD6
:102D100088A38D8D882389F08E8D8F5F8E8F8E8D09
:102D20008C3321F41E8E8F8D8F5F8F8F8F8D8C3320
:102D300021F41F8E88A18F5F88A30E94B50F88A100
:102D40009AE0692F0E941123805D0E94390C88A1AE
:102D50009AE0692F0E941123892F805D0E94390C0F
:102D60008AE30E94390C8F8D9AE0692F0E9411230B
:102D7000805D0E94390C8F8D9AE0692F0E9411238B
:102D8000892F805D0E94390C8AE30E94390C8E8D58
:102D90009AE0692F0E941123805D0E94390C8E8D6C
:102DA0009AE0692F0E941123892F805D0E94390CBF
:102DB00080E090E0AAE7B4E48B879C87AD87BE876C
:102DC0006B857C858D859E8520E030E04AEF54E45C
:102DD0000E941F02DC01CB018F839887A987BA87E5
:102DE0006F81788589859A8520E030E040E85FE34F
:102DF0000E94250488232CF481E090E09E838D833B
:102E00003FC06F81788589859A8520E03FEF4FE745
:102E100057E40E94C50318164CF56B857C858D859B
:102E20009E8520E030E040E251E40E941F02DC0178
:102E3000CB01BC01CD010E944900DC01CB019E8386
:102E40008D830FC088EC90E09C838B838B819C8169
:102E50000197F1F79C838B838D819E8101979E83DF
:102E60008D838D819E81009769F72ACF6F81788548
:102E700089859A850E944900DC01CB019E838D8360
:102E80008D819E819A83898389819A810197F1F747
:102E90009A83898315CFDF93CF93CDB7DEB76F9732
:102EA0000FB6F894DEBF0FBECDBF0E94B50F85EC04
:102EB00090E00E94980F80E090E0AAE7B4E4898F48
:102EC0009A8FAB8FBC8F698D7A8D8B8D9C8D20E016
:102ED00030E04AEF54E40E941F02DC01CB018D8BED
:102EE0009E8BAF8BB88F6D897E898F89988D20E0FE
:102EF00030E040E85FE30E94250488232CF481E061
:102F000090E09C8B8B8B3FC06D897E898F89988DDB
:102F100020E03FEF4FE757E40E94C50318164CF539
:102F2000698D7A8D8B8D9C8D20E030E040E251E4FC
:102F30000E941F02DC01CB01BC01CD010E944900AF
:102F4000DC01CB019C8B8B8B0FC088EC90E09A8BC3
:102F5000898B89899A890197F1F79A8B898B8B895B
:102F60009C8901979C8B8B8B8B899C89009769F737
:102F700014C06D897E898F89988D0E944900DC017B
:102F8000CB019C8B8B8B8B899C89988B8F878F85B2
:102F900098890197F1F7988B8F871F8E1E8E1D8E53
:102FA0000E94B50F80ED90E00E94980F80E067E1ED
:102FB0000E94D4108F8F0E94B50F8CED90E00E947C
:102FC000980F80E06BE30E94D4108E8F0E94B50FA3
:102FD0008AEE90E00E94980F80E06BE30E94D4108C
:102FE0008D8F8F8D6E8D4D8D0E94A3200E94B50F09
:102FF00088EF90E00E94980F80E090E0AAE7B4E4A8
:103000008B879C87AD87BE876B857C858D859E85EC
:1030100020E030E04AEF54E40E941F02DC01CB01C3
:103020008F839887A987BA876F81788589859A85E4
:1030300020E030E040E85FE30E94250488232CF480
:1030400081E090E09E838D833FC06F817885898584
:103050009A8520E03FEF4FE757E40E94C50318161A
:103060004CF56B857C858D859E8520E030E040E2C7
:1030700051E40E941F02DC01CB01BC01CD010E9482
:103080004900DC01CB019E838D830FC088EC90E06A
:103090009C838B838B819C810197F1F79C838B832D
:1030A0008D819E8101979E838D838D819E81009766
:1030B00069F714C06F81788589859A850E944900D7
:1030C000DC01CB019E838D838D819E819A838983D0
:1030D00089819A810197F1F79A8389830E94BA12B4
:1030E0006F960FB6F894DEBF0FBECDBFCF91DF91C4
:1030F0000895DF93CF93CDB7DEB76F970FB6F894EF
:10310000DEBF0FBECDBF0E94B50F82E091E00E94EE
:10311000980F80E090E0AAE7B4E4898F9A8FAB8F94
:10312000BC8F698D7A8D8B8D9C8D20E030E04AEFCD
:1031300054E40E941F02DC01CB018D8B9E8BAF8B70
:10314000B88F6D897E898F89988D20E030E040E8C6
:103150005FE30E94250488232CF481E090E09C8B9F
:103160008B8B3FC06D897E898F89988D20E03FEFE2
:103170004FE757E40E94C50318164CF5698D7A8D08
:103180008B8D9C8D20E030E040E251E40E941F02D4
:10319000DC01CB01BC01CD010E944900DC01CB0167
:1031A0009C8B8B8B0FC088EC90E09A8B898B8989E4
:1031B0009A890197F1F79A8B898B8B899C89019762
:1031C0009C8B8B8B8B899C89009769F714C06D89C8
:1031D0007E898F89988D0E944900DC01CB019C8BF0
:1031E0008B8B8B899C89988B8F878F85988901978A
:1031F000F1F7988B8F871F8E1E8E1D8E0E94B50F44
:103200008DE091E00E94980F80E063E60E94D41068
:103210008D8F0E94B50F88E191E00E94980F81E0A8
:103220006CE00E94D4108E8F0E94B50F84E291E072
:103230000E94980F8E8D823031F481E06DE10E9402
:10324000D4108F8F17C08E8D843049F08E8D8630CC
:1032500031F08E8D893019F08E8D8B3031F481E014
:103260006EE10E94D4108F8F05C081E06FE10E9453
:10327000D4108F8F8F8D6E8D4D8D0E94C9200E942E
:10328000B50F8EE291E00E94980F80E090E0AAE7EF
:10329000B4E48B879C87AD87BE876B857C858D85E5
:1032A0009E8520E030E04AEF54E40E941F02DC01DA
:1032B000CB018F839887A987BA876F8178858985A5
:1032C0009A8520E030E040E85FE30E9425048823EF
:1032D0002CF481E090E09E838D833FC06F817885E0
:1032E00089859A8520E03FEF4FE757E40E94C503A8
:1032F00018164CF56B857C858D859E8520E030E029
:1033000040E251E40E941F02DC01CB01BC01CD016F
:103310000E944900DC01CB019E838D830FC088ECA5
:1033200090E09C838B838B819C810197F1F79C8338
:103330008B838D819E8101979E838D838D819E815C
:10334000009769F714C06F81788589859A850E94F6
:103350004900DC01CB019E838D838D819E819A8300
:10336000898389819A810197F1F79A8389830E94E1
:10337000BA126F960FB6F894DEBF0FBECDBFCF91D5
:10338000DF910895DF93CF93CDB7DEB7EB970FB6FC
:10339000F894DEBF0FBECDBF8091D601843008F413
:1033A00079C00E94B50F88E391E00E94980F80E0F9
:1033B00090E0AAE7B4E48DAB9EABAFABB8AF6DA91C
:1033C0007EA98FA998AD20E030E04AEF54E40E9436
:1033D0001F02DC01CB0189AB9AABABABBCAB69A9DB
:1033E0007AA98BA99CA920E030E040E85FE30E9425
:1033F000250488232CF481E090E098AB8FA73FC090
:1034000069A97AA98BA99CA920E03FEF4FE757E46F
:103410000E94C50318164CF56DA97EA98FA998AD19
:1034200020E030E040E251E40E941F02DC01CB01C9
:10343000BC01CD010E944900DC01CB0198AB8FA7F4
:103440000FC088EC90E09EA78DA78DA59EA5019743
:10345000F1F79EA78DA78FA598A9019798AB8FA785
:103460008FA598A9009769F7E9C169A97AA98BA9DD
:103470009CA90E944900DC01CB0198AB8FA78FA5C6
:1034800098A99CA78BA78BA59CA50197F1F79CA752
:103490008BA7D4C10E94B50F84E491E00E94980FDD
:1034A00080E090E0AAE7B4E48FA398A7A9A7BAA701
:1034B0006FA178A589A59AA520E030E04AEF54E4F1
:1034C0000E941F02DC01CB018BA39CA3ADA3BEA372
:1034D0006BA17CA18DA19EA120E030E040E85FE3DC
:1034E0000E94250488232CF481E090E09AA389A30C
:1034F0003FC06BA17CA18DA19EA120E03FEF4FE7D3
:1035000057E40E94C50318164CF56FA178A589A54C
:103510009AA520E030E040E251E40E941F02DC0165
:10352000CB01BC01CD010E944900DC01CB019AA373
:1035300089A30FC088EC90E098A38F8F8F8D98A1FE
:103540000197F1F798A38F8F89A19AA101979AA368
:1035500089A389A19AA1009769F714C06BA17CA1E6
:103560008DA19EA10E944900DC01CB019AA389A3F1
:1035700089A19AA19E8F8D8F8D8D9E8D0197F1F7D8
:103580009E8F8D8F0E94B50F8FE491E00E94980F5F
:1035900080E067E10E94D4108BAF0E94B50F8AE5EE
:1035A00091E00E94980F80E06BE30E94D4108AAFF4
:1035B00019AE9AC089AD882F90E0880F991F880FA7
:1035C000991FFC01E552FE4F90818BAD981709F0D1
:1035D00088C089AD882F90E0880F991F880F991FA8
:1035E000FC01E452FE4F90818AAD981709F079C032
:1035F0000E94B50F87E691E00E94980F80E090E06E
:10360000AAE7B4E4898F9A8FAB8FBC8F698D7A8DCE
:103610008B8D9C8D20E030E04AEF54E40E941F0225
:10362000DC01CB018D8B9E8BAF8BB88F6D897E8932
:103630008F89988D20E030E040E85FE30E94250408
:1036400088232CF481E090E09C8B8B8B3FC06D89AC
:103650007E898F89988D20E03FEF4FE757E40E94E5
:10366000C50318164CF5698D7A8D8B8D9C8D20E0E5
:1036700030E040E251E40E941F02DC01CB01BC01BA
:10368000CD010E944900DC01CB019C8B8B8B0FC0CC
:1036900088EC90E09A8B898B89899A890197F1F758
:1036A0009A8B898B8B899C8901979C8B8B8B8B89BF
:1036B0009C89009769F7C2C06D897E898F89988D32
:1036C0000E944900DC01CB019C8B8B8B8B899C89F0
:1036D000988B8F878F8598890197F1F7988B8F87C3
:1036E000ADC089AD8F5F89AF9091D60189AD891743
:1036F00008F460CF8091D601882F90E0880F991F41
:10370000880F991FFC01E552FE4F8BAD808380919D
:10371000D601882F90E0880F991F880F991FFC0110
:10372000E452FE4F8AAD80838091D601882F90E0CD
:10373000880F991F880F991FFC01E252FE4F81E00C
:1037400080838091D6018F5F8093D6010E94B50F50
:1037500085E791E00E94980F80E090E0AAE7B4E44A
:103760008B879C87AD87BE876B857C858D859E8585
:1037700020E030E04AEF54E40E941F02DC01CB015C
:103780008F839887A987BA876F81788589859A857D
:1037900020E030E040E85FE30E94250488232CF419
:1037A00081E090E09E838D833FC06F81788589851D
:1037B0009A8520E03FEF4FE757E40E94C5031816B3
:1037C0004CF56B857C858D859E8520E030E040E260
:1037D00051E40E941F02DC01CB01BC01CD010E941B
:1037E0004900DC01CB019E838D830FC088EC90E003
:1037F0009C838B838B819C810197F1F79C838B83C6
:103800008D819E8101979E838D838D819E810097FE
:1038100069F714C06F81788589859A850E9449006F
:10382000DC01CB019E838D838D819E819A83898368
:1038300089819A810197F1F79A838983EB960FB674
:10384000F894DEBF0FBECDBFCF91DF910895DF9317
:10385000CF93CDB7DEB7A0970FB6F894DEBF0FBEFB
:10386000CDBFCE014E969E01215E3F4FAE01405E20
:103870005F4FB9010E94EF201D8E40C18D8D882FB2
:1038800090E0880F991F880F991FFC01E252FE4FAC
:103890008081882309F42FC18D8D882F90E0880FB7
:1038A000991F880F991FFC01E552FE4F90818E8D64
:1038B000981709F020C18D8D882F90E0880F991FEF
:1038C000880F991FFC01E452FE4F90818F8D98174D
:1038D00009F011C10E94B50F80E891E00E94980F95
:1038E000A8E3B0E0E8E3F0E0808182608C9372C0EE
:1038F00080E090E0A8ECB2E4898F9A8FAB8FBC8F08
:10390000698D7A8D8B8D9C8D20E030E04AEF54E4F8
:103910000E941F02DC01CB018D8B9E8BAF8BB88F79
:103920006D897E898F89988D20E030E040E85FE3E3
:103930000E94250488232CF481E090E09C8B8B8BE3
:103940003FC06D897E898F89988D20E03FEF4FE7DA
:1039500057E40E94C50318164CF5698D7A8D8B8D3E
:103960009C8D20E030E040E251E40E941F02DC0127
:10397000CB01BC01CD010E944900DC01CB019C8B35
:103980008B8B0FC088EC90E09A8B898B89899A8900
:103990000197F1F79A8B898B8B899C8901979C8B76
:1039A0008B8B8B899C89009769F714C06D897E8900
:1039B0008F89988D0E944900DC01CB019C8B8B8BF9
:1039C0008B899C89988B8F878F8598890197F1F7D0
:1039D000988B8F8783E466E00E948006882309F431
:1039E00087CFA8E3B0E0E8E3F0E080818D7F8C939F
:1039F0008D8D882F90E0880F991F880F991FFC01EB
:103A0000E252FE4F10820E94B50F89E891E00E94B9
:103A1000980F80E090E0AAE7B4E48B879C87AD879D
:103A2000BE876B857C858D859E8520E030E04AEFE2
:103A300054E40E941F02DC01CB018F839887A98781
:103A4000BA876F81788589859A8520E030E040E8E3
:103A50005FE30E94250488232CF481E090E09E839C
:103A60008D833FC06F81788589859A8520E03FEFFF
:103A70004FE757E40E94C50318164CF56B857C850B
:103A80008D859E8520E030E040E251E40E941F02D7
:103A9000DC01CB01BC01CD010E944900DC01CB015E
:103AA0009E838D830FC088EC90E09C838B838B81F9
:103AB0009C810197F1F79C838B838D819E81019777
:103AC0009E838D838D819E81009769F714C06F81DD
:103AD000788589859A850E944900DC01CB019E8307
:103AE0008D838D819E819A83898389819A810197B3
:103AF000F1F79A8389838D8D8F5F8D8F9091D60199
:103B00008D8D891708F4BACEA0960FB6F894DEBF53
:103B10000FBECDBFCF91DF910895DF93CF93CDB787
:103B2000DEB7A0970FB6F894DEBF0FBECDBF83E41B
:103B300065E00E948006882309F47EC10E94B50FCB
:103B40001F8E1E8EF3C08E8D882F90E0880F991FD8
:103B5000880F991FFC01E252FE4F8081882309F4EF
:103B6000E2C08F8D823009F074C080E090E0AAEF4F
:103B7000B4E4898F9A8FAB8FBC8F698D7A8D8B8DD2
:103B80009C8D20E030E04AEF54E40E941F02DC01EB
:103B9000CB018D8B9E8BAF8BB88F6D897E898F8982
:103BA000988D20E030E040E85FE30E942504882300
:103BB0002CF481E090E09C8B8B8B3FC06D897E89DB
:103BC0008F89988D20E03FEF4FE757E40E94C503AF
:103BD00018164CF5698D7A8D8B8D9C8D20E030E028
:103BE00040E251E40E941F02DC01CB01BC01CD0187
:103BF0000E944900DC01CB019C8B8B8B0FC088ECB1
:103C000090E09A8B898B89899A890197F1F79A8B31
:103C1000898B8B899C8901979C8B8B8B8B899C8949
:103C2000009769F714C06D897E898F89988D0E94ED
:103C30004900DC01CB019C8B8B8B8B899C89988BF9
:103C40008F878F8598890197F1F7988B8F870E94CE
:103C5000B50F8F8D823018F480E888A302C080EC05
:103C600088A388A18D8F8F8D882F90E081709070B0
:103C7000880F991F880F991F880F991F982F8D8D76
:103C8000890F0E9438088E8D882F90E0880F991F29
:103C9000880F991FFC01E552FE4F80819AE0692F41
:103CA0000E941123805D0E94390C8E8D882F90E038
:103CB000880F991F880F991FFC01E552FE4F8081E4
:103CC0009AE0692F0E941123892F805D0E94390C90
:103CD0008AE30E94390C8E8D882F90E0880F991FFF
:103CE000880F991FFC01E452FE4F80819AE0692FF2
:103CF0000E941123805D0E94390C8E8D882F90E0E8
:103D0000880F991F880F991FFC01E452FE4F808194
:103D10009AE0692F0E941123892F805D0E94390C3F
:103D20008F8D8F5F8F8F8E8D8F5F8E8F9091D6014D
:103D30008E8D891720F48F8D843008F404CF8F8DF9
:103D4000882331F40E94B50F87E991E00E94980F13
:103D500080E090E8ABE3B5E48B879C87AD87BE87B6
:103D60006B857C858D859E8520E030E04AEF54E4AC
:103D70000E941F02DC01CB018F839887A987BA8735
:103D80006F81788589859A8520E030E040E85FE39F
:103D90000E94250488232CF481E090E09E838D838B
:103DA0003FC06F81788589859A8520E03FEF4FE796
:103DB00057E40E94C50318164CF56B857C858D85EC
:103DC0009E8520E030E040E251E40E941F02DC01C9
:103DD000CB01BC01CD010E944900DC01CB019E83D7
:103DE0008D830FC088EC90E09C838B838B819C81BA
:103DF0000197F1F79C838B838D819E8101979E8330
:103E00008D838D819E81009769F714C06F817885BD
:103E100089859A850E944900DC01CB019E838D83B0
:103E20008D819E819A83898389819A810197F1F797
:103E30009A8389830E94B50FA0960FB6F894DEBFCF
:103E40000FBECDBFCF91DF910895DF93CF93CDB754
:103E5000DEB76C970FB6F894DEBF0FBECDBF0E94E1
:103E60004F060E94970B0E949A200E945F210E9499
:103E7000460788EA91E00E94980F80E090E0AAE768
:103E8000B4E4898F9A8FAB8FBC8F698D7A8D8B8DBF
:103E90009C8D20E030E04AEF54E40E941F02DC01D8
:103EA000CB018D8B9E8BAF8BB88F6D897E898F896F
:103EB000988D20E030E040E85FE30E9425048823ED
:103EC0002CF481E090E09C8B8B8B3FC06D897E89C8
:103ED0008F89988D20E03FEF4FE757E40E94C5039C
:103EE00018164CF5698D7A8D8B8D9C8D20E030E015
:103EF00040E251E40E941F02DC01CB01BC01CD0174
:103F00000E944900DC01CB019C8B8B8B0FC088EC9D
:103F100090E09A8B898B89899A890197F1F79A8B1E
:103F2000898B8B899C8901979C8B8B8B8B899C8936
:103F3000009769F714C06D897E898F89988D0E94DA
:103F40004900DC01CB019C8B8B8B8B899C89988BE6
:103F50008F878F8598890197F1F7988B8F8784E4F5
:103F600060E00E948006882311F00E94DA1584E444
:103F700064E00E948006882311F00E94431383E4CA
:103F800063E00E948006882311F00E944B1783E4AF
:103F900062E00E948006882311F00E94791883E471
:103FA00064E00E948006882311F00E94C21983E415
:103FB00065E00E948006882311F00E948D1D84E434
:103FC00063E00E948006882311F00E943D100E9449
:103FD000271C0E94151280E090E0AAE7B4E48B87CA
:103FE0009C87AD87BE876B857C858D859E8520E00F
:103FF00030E04AEF54E40E941F02DC01CB018F83C2
:104000009887A987BA876F81788589859A8520E006
:1040100030E040E85FE30E94250488232CF481E02F
:1040200090E09E838D833FC06F81788589859A85D6
:1040300020E03FEF4FE757E40E94C50318164CF508
:104040006B857C858D859E8520E030E040E251E4E3
:104050000E941F02DC01CB01BC01CD010E9449007E
:10406000DC01CB019E838D830FC088EC90E09C83A4
:104070008B838B819C810197F1F79C838B838D814E
:104080009E8101979E838D838D819E81009769F724
:1040900066CF6F81788589859A850E944900DC0109
:1040A000CB019E838D838D819E819A8389838981B3
:1040B0009A810197F1F79A83898351CFDF93CF9348
:1040C0000F92CDB7DEB78983898182958F70882F53
:1040D00090E09C01220F331FC901880F991F880FA0
:1040E000991F820F931F982F89818F70890F0F90CE
:1040F000CF91DF910895DF93CF930F92CDB7DEB7C5
:10410000898389819AE0692F0E941123882F90E08A
:1041100082959295907F9827807F9827282F898174
:104120009AE0692F0E941123892F822B0F90CF9143
:10413000DF910895DF93CF93CDB7DEB70E94D0060D
:10414000CF91DF910895DF93CF9300D00F92CDB739
:10415000DEB789836A834B8380ED0E94DE0680E0B0
:104160000E94FE068B810E947B200E94FE068A81AF
:104170000E947B200E94FE0689810E947B200E9473
:10418000FE060E943B070F900F900F90CF91DF919A
:104190000895DF93CF9300D00F92CDB7DEB7898318
:1041A0006A834B8380ED0E94DE0684E00E94FE0657
:1041B00089810E947B200E94FE068A810E947B20CA
:1041C0000E94FE068B810E947B200E94FE060E94B8
:1041D0003B070F900F900F90CF91DF910895DF93E1
:1041E000CF9300D000D000D0CDB7DEB79A838983BB
:1041F0007C836B835E834D8380ED0E94DE0680E0CE
:104200000E94FE060E943B0781ED0E94DE060E948E
:1042100015070E945E20ED81FE8180830E941507B4
:104220000E945E20EB81FC8180830E9428070E940F
:104230005E20E981FA8180830E943B0726960FB6B3
:10424000F894DEBF0FBECDBFCF91DF910895DF930D
:10425000CF9300D000D000D0CDB7DEB79A8389834A
:104260007C836B835E834D8380ED0E94DE0684E059
:104270000E94FE060E943B0781ED0E94DE060E941E
:1042800015070E945E20E981FA8180830E9415074C
:104290000E945E20EB81FC8180830E9428070E949F
:1042A0005E20ED81FE8180830E943B0726960FB63B
:1042B000F894DEBF0FBECDBFCF91DF910895DF939D
:1042C000CF93CDB7DEB7F894AEE4B0E0EEE4F0E023
:1042D00080818D608C93EAE4F0E089E09DE3918336
:1042E0008083A9E5B0E0E9E5F0E0808180618C930E
:1042F0007894CF91DF910895DF93CF9300D00F9200
:10430000CDB7DEB789836A834B8389818093D701D8
:104310008A818093D8018B818093D9010F900F906F
:104320000F90CF91DF910895DF93CF93CDB7DEB794
:1043300081E08093DA01CF91DF910895DF93CF93ED
:10434000CDB7DEB71092DA01CF91DF910895DF93F8
:10435000CF93CDB7DEB71092DA011092D701109249
:10436000D8011092D901CF91DF910895DF93CF93B7
:1043700000D0CDB7DEB78091D701882369F4809152
:10438000D801882349F48091D901882329F481E058
:1043900090E09A83898302C01A82198289810F90E2
:1043A0000F90CF91DF910895DF93CF93CDB7DEB714
:1043B0002E970FB6F894DEBF0FBECDBFA8E3B0E0D6
:1043C000E8E3F0E0808182608C9380E090E4ACE9E7
:1043D000B5E48B879C87AD87BE876B857C858D8593
:1043E0009E8520E030E04AEF54E40E941F02DC0189
:1043F000CB018F839887A987BA876F817885898554
:104400009A8520E030E040E85FE30E94250488239D
:104410002CF481E090E09E838D833FC06F8178858E
:1044200089859A8520E03FEF4FE757E40E94C50356
:1044300018164CF56B857C858D859E8520E030E0D7
:1044400040E251E40E941F02DC01CB01BC01CD011E
:104450000E944900DC01CB019E838D830FC088EC54
:1044600090E09C838B838B819C810197F1F79C83E7
:104470008B838D819E8101979E838D838D819E810B
:10448000009769F714C06F81788589859A850E94A5
:104490004900DC01CB019E838D838D819E819A83AF
:1044A000898389819A810197F1F79A838983A8E3A7
:1044B000B0E0E8E3F0E080818D7F8C932E960FB61C
:1044C000F894DEBF0FBECDBFCF91DF910895DF938B
:1044D000CF93CDB7DEB70E94B621882321F010928A
:1044E000DA010E94D4210E94B50F82EB91E00E9474
:1044F000980F8091D7019AE0692F0E941123805D67
:104500000E94390C8091D7019AE0692F0E941123F3
:10451000892F805D0E94390C8AE30E94390C8091BA
:10452000D8019AE0692F0E941123805D0E94390C06
:104530008091D8019AE0692F0E941123892F805D14
:104540000E94390C8AE30E94390C8091D9019AE0CB
:10455000692F0E941123805D0E94390C8091D9013E
:104560009AE0692F0E941123892F805D0E94390CE7
:10457000CF91DF9108951F920F920FB60F921124E1
:104580002F933F934F935F936F937F938F939F935B
:10459000AF93BF93EF93FF93DF93CF93CDB7DEB786
:1045A0008091DA01882351F10E94B621882331F5E8
:1045B0008091D901882331F08091D9018150809375
:1045C000D9011CC08091D801882349F08091D8017D
:1045D00081508093D8018BE38093D9010FC08091E3
:1045E000D701882359F08091D70181508093D7015A
:1045F0008BE38093D8018BE38093D901CF91DF9136
:10460000FF91EF91BF91AF919F918F917F916F91AA
:104610005F914F913F912F910F900FBE0F901F9080
:104620001895991B79E004C0991F961708F0961BFE
:10463000881F7A95C9F7809508952F923F924F92DF
:104640005F926F927F928F929F92AF92BF92CF9222
:10465000DF92EF92FF920F931F93CF93DF93CDB72B
:10466000DEB7CA1BDB0B0FB6F894DEBF0FBECDBFA3
:1046700009942A88398848885F846E847D848C8474
:104680009B84AA84B984C884DF80EE80FD800C817D
:104690001B81AA81B981CE0FD11D0FB6F894DEBF60
:0C46A0000FBECDBFED010895F894FFCFD0
:1046AC00496E76616C6964212020200054696D6527
:1046BC003A2000446174653A2000536574205469B3
:1046CC006D6572212100486F7572733A004D696EE9
:1046DC00757465733A005365636F6E64733A005476
:1046EC00696D65204C6566740054696D652773208F
:1046FC005570210053746F707761746368204D6F2F
:10470C0064652121005365742054696D6521210075
:10471C0053657420486F7572733A2000536574208A
:10472C004D696E757465733A20005365742053653A
:10473C00636F6E64733A200054696D652053657421
:10474C002100536574204461746521210053657404
:10475C0020596561723A2000536574204D6F6E7458
:10476C00683A2000536574204461793A2000446112
:10477C007465205365742100416C61726D2046751F
:10478C006C6C210053657420416C61726D21005377
:10479C00657420486F7572733A00536574204D69C7
:1047AC006E757465733A00416C61726D2045786961
:1047BC007374732100416C61726D20536574210018
:1047CC00414C41524D21212100416C61726D2053AD
:1047DC00746F70706564004E6F2041637469766508
:1047EC0020416C61726D73005254432054696D65A5
:1047FC00720054696D65204C6566743A20000000A7
:10480C00000000000000373839413435364231326F
:06481C0033432A303D4445
:00000001FF
